{
  "contractName": "Exchange",
  "abi": [
    {
      "inputs": [],
      "stateMutability": "nonpayable",
      "type": "constructor"
    },
    {
      "anonymous": false,
      "inputs": [
        {
          "indexed": true,
          "internalType": "bytes32",
          "name": "orderHash",
          "type": "bytes32"
        },
        {
          "indexed": true,
          "internalType": "address",
          "name": "user",
          "type": "address"
        },
        {
          "indexed": false,
          "internalType": "address",
          "name": "tokenToGive",
          "type": "address"
        },
        {
          "indexed": false,
          "internalType": "uint256",
          "name": "amountToGive",
          "type": "uint256"
        },
        {
          "indexed": false,
          "internalType": "address",
          "name": "tokenToReceive",
          "type": "address"
        },
        {
          "indexed": false,
          "internalType": "uint256",
          "name": "amountToReceive",
          "type": "uint256"
        },
        {
          "indexed": false,
          "internalType": "uint256",
          "name": "timespan",
          "type": "uint256"
        }
      ],
      "name": "CancelOrder",
      "type": "event"
    },
    {
      "anonymous": false,
      "inputs": [
        {
          "indexed": true,
          "internalType": "bytes32",
          "name": "orderHash",
          "type": "bytes32"
        },
        {
          "indexed": true,
          "internalType": "address",
          "name": "user",
          "type": "address"
        },
        {
          "indexed": false,
          "internalType": "address",
          "name": "tokenToGive",
          "type": "address"
        },
        {
          "indexed": false,
          "internalType": "uint256",
          "name": "amountToGive",
          "type": "uint256"
        },
        {
          "indexed": false,
          "internalType": "address",
          "name": "tokenToReceive",
          "type": "address"
        },
        {
          "indexed": false,
          "internalType": "uint256",
          "name": "amountToReceive",
          "type": "uint256"
        },
        {
          "indexed": false,
          "internalType": "uint256",
          "name": "timespan",
          "type": "uint256"
        }
      ],
      "name": "CreateOrder",
      "type": "event"
    },
    {
      "anonymous": false,
      "inputs": [
        {
          "indexed": true,
          "internalType": "address",
          "name": "user",
          "type": "address"
        },
        {
          "indexed": true,
          "internalType": "address",
          "name": "token",
          "type": "address"
        },
        {
          "indexed": true,
          "internalType": "uint256",
          "name": "amount",
          "type": "uint256"
        }
      ],
      "name": "Deposit",
      "type": "event"
    },
    {
      "anonymous": false,
      "inputs": [
        {
          "indexed": true,
          "internalType": "bytes32",
          "name": "orderHash",
          "type": "bytes32"
        },
        {
          "indexed": true,
          "internalType": "address",
          "name": "fromUser",
          "type": "address"
        },
        {
          "indexed": true,
          "internalType": "address",
          "name": "toUser",
          "type": "address"
        },
        {
          "indexed": false,
          "internalType": "address",
          "name": "tokenFrom",
          "type": "address"
        },
        {
          "indexed": false,
          "internalType": "uint256",
          "name": "amountFrom",
          "type": "uint256"
        },
        {
          "indexed": false,
          "internalType": "address",
          "name": "tokenTo",
          "type": "address"
        },
        {
          "indexed": false,
          "internalType": "uint256",
          "name": "amountTo",
          "type": "uint256"
        }
      ],
      "name": "Trade",
      "type": "event"
    },
    {
      "anonymous": false,
      "inputs": [
        {
          "indexed": true,
          "internalType": "address",
          "name": "user",
          "type": "address"
        },
        {
          "indexed": true,
          "internalType": "address",
          "name": "token",
          "type": "address"
        },
        {
          "indexed": true,
          "internalType": "uint256",
          "name": "amount",
          "type": "uint256"
        }
      ],
      "name": "Withdraw",
      "type": "event"
    },
    {
      "inputs": [],
      "name": "EthTokenAddress",
      "outputs": [
        {
          "internalType": "address",
          "name": "",
          "type": "address"
        }
      ],
      "stateMutability": "view",
      "type": "function",
      "constant": true
    },
    {
      "inputs": [
        {
          "internalType": "bytes32",
          "name": "",
          "type": "bytes32"
        }
      ],
      "name": "cancelledOrders",
      "outputs": [
        {
          "internalType": "bool",
          "name": "",
          "type": "bool"
        }
      ],
      "stateMutability": "view",
      "type": "function",
      "constant": true
    },
    {
      "inputs": [
        {
          "internalType": "bytes32",
          "name": "",
          "type": "bytes32"
        }
      ],
      "name": "completedOrders",
      "outputs": [
        {
          "internalType": "bool",
          "name": "",
          "type": "bool"
        }
      ],
      "stateMutability": "view",
      "type": "function",
      "constant": true
    },
    {
      "inputs": [],
      "name": "feeFrom",
      "outputs": [
        {
          "internalType": "uint256",
          "name": "",
          "type": "uint256"
        }
      ],
      "stateMutability": "view",
      "type": "function",
      "constant": true
    },
    {
      "inputs": [],
      "name": "feeTo",
      "outputs": [
        {
          "internalType": "uint256",
          "name": "",
          "type": "uint256"
        }
      ],
      "stateMutability": "view",
      "type": "function",
      "constant": true
    },
    {
      "inputs": [
        {
          "internalType": "bytes32",
          "name": "",
          "type": "bytes32"
        }
      ],
      "name": "orderExists",
      "outputs": [
        {
          "internalType": "bool",
          "name": "",
          "type": "bool"
        }
      ],
      "stateMutability": "view",
      "type": "function",
      "constant": true
    },
    {
      "inputs": [
        {
          "internalType": "bytes32",
          "name": "",
          "type": "bytes32"
        }
      ],
      "name": "orders",
      "outputs": [
        {
          "internalType": "bytes32",
          "name": "hash",
          "type": "bytes32"
        },
        {
          "internalType": "address",
          "name": "user",
          "type": "address"
        },
        {
          "internalType": "address",
          "name": "tokenToGive",
          "type": "address"
        },
        {
          "internalType": "uint256",
          "name": "amountToGive",
          "type": "uint256"
        },
        {
          "internalType": "address",
          "name": "tokenToReceive",
          "type": "address"
        },
        {
          "internalType": "uint256",
          "name": "amountToReceive",
          "type": "uint256"
        },
        {
          "internalType": "uint256",
          "name": "timespan",
          "type": "uint256"
        }
      ],
      "stateMutability": "view",
      "type": "function",
      "constant": true
    },
    {
      "inputs": [
        {
          "internalType": "bytes32",
          "name": "",
          "type": "bytes32"
        },
        {
          "internalType": "uint256",
          "name": "",
          "type": "uint256"
        }
      ],
      "name": "ordersWithSpecialConditions",
      "outputs": [
        {
          "internalType": "bytes32",
          "name": "",
          "type": "bytes32"
        }
      ],
      "stateMutability": "view",
      "type": "function",
      "constant": true
    },
    {
      "inputs": [],
      "name": "owner",
      "outputs": [
        {
          "internalType": "address payable",
          "name": "",
          "type": "address"
        }
      ],
      "stateMutability": "view",
      "type": "function",
      "constant": true
    },
    {
      "inputs": [
        {
          "internalType": "address",
          "name": "",
          "type": "address"
        },
        {
          "internalType": "address",
          "name": "",
          "type": "address"
        }
      ],
      "name": "tokens",
      "outputs": [
        {
          "internalType": "uint256",
          "name": "",
          "type": "uint256"
        }
      ],
      "stateMutability": "view",
      "type": "function",
      "constant": true
    },
    {
      "inputs": [
        {
          "internalType": "address",
          "name": "",
          "type": "address"
        },
        {
          "internalType": "uint256",
          "name": "",
          "type": "uint256"
        }
      ],
      "name": "userOrders",
      "outputs": [
        {
          "internalType": "bytes32",
          "name": "",
          "type": "bytes32"
        }
      ],
      "stateMutability": "view",
      "type": "function",
      "constant": true
    },
    {
      "inputs": [],
      "name": "deposit",
      "outputs": [],
      "stateMutability": "payable",
      "type": "function",
      "payable": true
    },
    {
      "inputs": [
        {
          "internalType": "address",
          "name": "_token",
          "type": "address"
        },
        {
          "internalType": "uint256",
          "name": "_amount",
          "type": "uint256"
        }
      ],
      "name": "depositToken",
      "outputs": [],
      "stateMutability": "nonpayable",
      "type": "function"
    },
    {
      "inputs": [
        {
          "internalType": "uint256",
          "name": "_amount",
          "type": "uint256"
        }
      ],
      "name": "withdraw",
      "outputs": [],
      "stateMutability": "nonpayable",
      "type": "function"
    },
    {
      "inputs": [
        {
          "internalType": "address",
          "name": "_token",
          "type": "address"
        },
        {
          "internalType": "uint256",
          "name": "_amount",
          "type": "uint256"
        }
      ],
      "name": "withdrawToken",
      "outputs": [],
      "stateMutability": "nonpayable",
      "type": "function"
    },
    {
      "inputs": [
        {
          "internalType": "address",
          "name": "_token",
          "type": "address"
        },
        {
          "internalType": "address",
          "name": "_user",
          "type": "address"
        }
      ],
      "name": "balanceOf",
      "outputs": [
        {
          "internalType": "uint256",
          "name": "",
          "type": "uint256"
        }
      ],
      "stateMutability": "view",
      "type": "function",
      "constant": true
    },
    {
      "inputs": [
        {
          "internalType": "address",
          "name": "_tokenToGive",
          "type": "address"
        },
        {
          "internalType": "uint256",
          "name": "_amountToGive",
          "type": "uint256"
        },
        {
          "internalType": "address",
          "name": "_tokenToReceive",
          "type": "address"
        },
        {
          "internalType": "uint256",
          "name": "_amountToReceive",
          "type": "uint256"
        },
        {
          "internalType": "uint256",
          "name": "_timespan",
          "type": "uint256"
        }
      ],
      "name": "trade",
      "outputs": [
        {
          "internalType": "bool",
          "name": "",
          "type": "bool"
        }
      ],
      "stateMutability": "nonpayable",
      "type": "function"
    },
    {
      "inputs": [
        {
          "internalType": "bytes32",
          "name": "orderHash",
          "type": "bytes32"
        }
      ],
      "name": "getOrderByHash",
      "outputs": [
        {
          "internalType": "address",
          "name": "",
          "type": "address"
        },
        {
          "internalType": "address",
          "name": "",
          "type": "address"
        },
        {
          "internalType": "uint256",
          "name": "",
          "type": "uint256"
        },
        {
          "internalType": "address",
          "name": "",
          "type": "address"
        },
        {
          "internalType": "uint256",
          "name": "",
          "type": "uint256"
        }
      ],
      "stateMutability": "view",
      "type": "function",
      "constant": true
    },
    {
      "inputs": [],
      "name": "getUserOrders",
      "outputs": [
        {
          "internalType": "bytes32[]",
          "name": "",
          "type": "bytes32[]"
        }
      ],
      "stateMutability": "view",
      "type": "function",
      "constant": true
    },
    {
      "inputs": [
        {
          "internalType": "bytes32",
          "name": "orderHash",
          "type": "bytes32"
        }
      ],
      "name": "cancelOrder",
      "outputs": [
        {
          "internalType": "bool",
          "name": "",
          "type": "bool"
        }
      ],
      "stateMutability": "nonpayable",
      "type": "function"
    },
    {
      "inputs": [],
      "name": "getActiveOrders",
      "outputs": [
        {
          "components": [
            {
              "internalType": "bytes32",
              "name": "hash",
              "type": "bytes32"
            },
            {
              "internalType": "address",
              "name": "user",
              "type": "address"
            },
            {
              "internalType": "address",
              "name": "tokenToGive",
              "type": "address"
            },
            {
              "internalType": "uint256",
              "name": "amountToGive",
              "type": "uint256"
            },
            {
              "internalType": "address",
              "name": "tokenToReceive",
              "type": "address"
            },
            {
              "internalType": "uint256",
              "name": "amountToReceive",
              "type": "uint256"
            },
            {
              "internalType": "uint256",
              "name": "timespan",
              "type": "uint256"
            }
          ],
          "internalType": "struct Exchange.Order[]",
          "name": "",
          "type": "tuple[]"
        }
      ],
      "stateMutability": "view",
      "type": "function",
      "constant": true
    },
    {
      "inputs": [],
      "name": "getTransactions",
      "outputs": [
        {
          "components": [
            {
              "internalType": "address",
              "name": "FromUser",
              "type": "address"
            },
            {
              "internalType": "address",
              "name": "ToUser",
              "type": "address"
            },
            {
              "internalType": "address",
              "name": "tokenFrom",
              "type": "address"
            },
            {
              "internalType": "uint256",
              "name": "amountFrom",
              "type": "uint256"
            },
            {
              "internalType": "address",
              "name": "tokenTo",
              "type": "address"
            },
            {
              "internalType": "uint256",
              "name": "amountTo",
              "type": "uint256"
            }
          ],
          "internalType": "struct Exchange.Transaction[]",
          "name": "",
          "type": "tuple[]"
        }
      ],
      "stateMutability": "view",
      "type": "function",
      "constant": true
    },
    {
      "inputs": [
        {
          "internalType": "uint256",
          "name": "n",
          "type": "uint256"
        }
      ],
      "name": "getRecentTransactions",
      "outputs": [
        {
          "components": [
            {
              "internalType": "address",
              "name": "FromUser",
              "type": "address"
            },
            {
              "internalType": "address",
              "name": "ToUser",
              "type": "address"
            },
            {
              "internalType": "address",
              "name": "tokenFrom",
              "type": "address"
            },
            {
              "internalType": "uint256",
              "name": "amountFrom",
              "type": "uint256"
            },
            {
              "internalType": "address",
              "name": "tokenTo",
              "type": "address"
            },
            {
              "internalType": "uint256",
              "name": "amountTo",
              "type": "uint256"
            }
          ],
          "internalType": "struct Exchange.Transaction[]",
          "name": "",
          "type": "tuple[]"
        }
      ],
      "stateMutability": "view",
      "type": "function",
      "constant": true
    }
  ],
  "bytecode": "0x608060405273eeeeeeeeeeeeeeeeeeeeeeeeeeeeeeeeeeeeeeee600360006101000a81548173ffffffffffffffffffffffffffffffffffffffff021916908373ffffffffffffffffffffffffffffffffffffffff16021790555034801561006557600080fd5b50336000806101000a81548173ffffffffffffffffffffffffffffffffffffffff021916908373ffffffffffffffffffffffffffffffffffffffff1602179055506064600181905550606460028190555061469c806100c56000396000f3fe60806040526004361061013f5760003560e01c806379cecf46116100b65780639c3f1e901161006f5780639c3f1e90146104bd5780639e281a9814610500578063d0e30db014610529578063e545166614610533578063f7888aec14610574578063fe77b4b3146105b15761013f565b806379cecf461461037357806383920e90146103b0578063856652e9146103db57806387948591146104185780638da5cb5b146104555780638f13f48e146104805761013f565b80631e4b919b116101085780631e4b919b1461023f5780632cb77e9f1461026a5780632e1a7d4d146102a7578063338b5dea146102d0578063508493bc146102f95780637489ec23146103365761013f565b806286e68b14610144578063017e7e581461016f57806302ca213c1461019a57806311be1c63146101d757806319fea4b314610202575b600080fd5b34801561015057600080fd5b506101596105dc565b60405161016691906136bd565b60405180910390f35b34801561017b57600080fd5b50610184610952565b60405161019191906136ee565b60405180910390f35b3480156101a657600080fd5b506101c160048036038101906101bc919061373a565b610958565b6040516101ce9190613782565b60405180910390f35b3480156101e357600080fd5b506101ec610978565b6040516101f991906137ac565b60405180910390f35b34801561020e57600080fd5b50610229600480360381019061022491906137f3565b61099e565b6040516102369190613842565b60405180910390f35b34801561024b57600080fd5b506102546109cf565b604051610261919061390c565b60405180910390f35b34801561027657600080fd5b50610291600480360381019061028c919061373a565b610a64565b60405161029e9190613782565b60405180910390f35b3480156102b357600080fd5b506102ce60048036038101906102c9919061392e565b610a84565b005b3480156102dc57600080fd5b506102f760048036038101906102f29190613987565b610ce1565b005b34801561030557600080fd5b50610320600480360381019061031b91906139c7565b610eec565b60405161032d91906136ee565b60405180910390f35b34801561034257600080fd5b5061035d6004803603810190610358919061373a565b610f11565b60405161036a9190613782565b60405180910390f35b34801561037f57600080fd5b5061039a6004803603810190610395919061392e565b6112d6565b6040516103a79190613b31565b60405180910390f35b3480156103bc57600080fd5b506103c561170a565b6040516103d29190613b31565b60405180910390f35b3480156103e757600080fd5b5061040260048036038101906103fd9190613987565b6118d5565b60405161040f9190613842565b60405180910390f35b34801561042457600080fd5b5061043f600480360381019061043a9190613b53565b611906565b60405161044c9190613782565b60405180910390f35b34801561046157600080fd5b5061046a611b1c565b6040516104779190613bef565b60405180910390f35b34801561048c57600080fd5b506104a760048036038101906104a2919061373a565b611b40565b6040516104b49190613782565b60405180910390f35b3480156104c957600080fd5b506104e460048036038101906104df919061373a565b611b60565b6040516104f79796959493929190613c0a565b60405180910390f35b34801561050c57600080fd5b5061052760048036038101906105229190613987565b611c02565b005b610531611eca565b005b34801561053f57600080fd5b5061055a6004803603810190610555919061373a565b611ffe565b60405161056b959493929190613c79565b60405180910390f35b34801561058057600080fd5b5061059b600480360381019061059691906139c7565b6121df565b6040516105a891906136ee565b60405180910390f35b3480156105bd57600080fd5b506105c6612266565b6040516105d391906136ee565b60405180910390f35b60606000805b600b805490508110156106ac5760076000600b838154811061060757610606613ccc565b5b906000526020600020906007020160000154815260200190815260200160002060009054906101000a900460ff16158015610685575060086000600b838154811061065557610654613ccc565b5b906000526020600020906007020160000154815260200190815260200160002060009054906101000a900460ff16155b1561069957818061069590613d2a565b9250505b80806106a490613d2a565b9150506105e2565b5060008167ffffffffffffffff8111156106c9576106c8613d72565b5b60405190808252806020026020018201604052801561070257816020015b6106ef6133fd565b8152602001906001900390816106e75790505b5090506000805b600b805490508110156109485760076000600b838154811061072e5761072d613ccc565b5b906000526020600020906007020160000154815260200190815260200160002060009054906101000a900460ff161580156107ac575060086000600b838154811061077c5761077b613ccc565b5b906000526020600020906007020160000154815260200190815260200160002060009054906101000a900460ff16155b1561093557600b81815481106107c5576107c4613ccc565b5b90600052602060002090600702016040518060e0016040529081600082015481526020016001820160009054906101000a900473ffffffffffffffffffffffffffffffffffffffff1673ffffffffffffffffffffffffffffffffffffffff1673ffffffffffffffffffffffffffffffffffffffff1681526020016002820160009054906101000a900473ffffffffffffffffffffffffffffffffffffffff1673ffffffffffffffffffffffffffffffffffffffff1673ffffffffffffffffffffffffffffffffffffffff168152602001600382015481526020016004820160009054906101000a900473ffffffffffffffffffffffffffffffffffffffff1673ffffffffffffffffffffffffffffffffffffffff1673ffffffffffffffffffffffffffffffffffffffff1681526020016005820154815260200160068201548152505083838151811061091b5761091a613ccc565b5b6020026020010181905250818061093190613d2a565b9250505b808061094090613d2a565b915050610709565b5081935050505090565b60025481565b60086020528060005260406000206000915054906101000a900460ff1681565b600360009054906101000a900473ffffffffffffffffffffffffffffffffffffffff1681565b600960205281600052604060002081815481106109ba57600080fd5b90600052602060002001600091509150505481565b6060600a60003373ffffffffffffffffffffffffffffffffffffffff1673ffffffffffffffffffffffffffffffffffffffff168152602001908152602001600020805480602002602001604051908101604052809291908181526020018280548015610a5a57602002820191906000526020600020905b815481526020019060010190808311610a46575b5050505050905090565b60066020528060005260406000206000915054906101000a900460ff1681565b8060046000600360009054906101000a900473ffffffffffffffffffffffffffffffffffffffff1673ffffffffffffffffffffffffffffffffffffffff1673ffffffffffffffffffffffffffffffffffffffff16815260200190815260200160002060003373ffffffffffffffffffffffffffffffffffffffff1673ffffffffffffffffffffffffffffffffffffffff168152602001908152602001600020541015610b65576040517f08c379a0000000000000000000000000000000000000000000000000000000008152600401610b5c90613e4a565b60405180910390fd5b8060046000600360009054906101000a900473ffffffffffffffffffffffffffffffffffffffff1673ffffffffffffffffffffffffffffffffffffffff1673ffffffffffffffffffffffffffffffffffffffff16815260200190815260200160002060003373ffffffffffffffffffffffffffffffffffffffff1673ffffffffffffffffffffffffffffffffffffffff1681526020019081526020016000206000828254610c139190613e6a565b925050819055503373ffffffffffffffffffffffffffffffffffffffff166108fc829081150290604051600060405180830381858888f19350505050158015610c60573d6000803e3d6000fd5b5080600360009054906101000a900473ffffffffffffffffffffffffffffffffffffffff1673ffffffffffffffffffffffffffffffffffffffff163373ffffffffffffffffffffffffffffffffffffffff167f9b1bfa7fa9ee420a16e124f794c35ac9f90472acc99140eb2f6447c714cad8eb60405160405180910390a450565b600360009054906101000a900473ffffffffffffffffffffffffffffffffffffffff1673ffffffffffffffffffffffffffffffffffffffff168273ffffffffffffffffffffffffffffffffffffffff1603610d71576040517f08c379a0000000000000000000000000000000000000000000000000000000008152600401610d6890613eea565b60405180910390fd5b8173ffffffffffffffffffffffffffffffffffffffff166323b872dd3330846040518463ffffffff1660e01b8152600401610dae93929190613f0a565b6020604051808303816000875af1158015610dcd573d6000803e3d6000fd5b505050506040513d601f19601f82011682018060405250810190610df19190613f6d565b610dfa57600080fd5b80600460008473ffffffffffffffffffffffffffffffffffffffff1673ffffffffffffffffffffffffffffffffffffffff16815260200190815260200160002060003373ffffffffffffffffffffffffffffffffffffffff1673ffffffffffffffffffffffffffffffffffffffff1681526020019081526020016000206000828254610e869190613f9a565b92505081905550808273ffffffffffffffffffffffffffffffffffffffff163373ffffffffffffffffffffffffffffffffffffffff167f5548c837ab068cf56a2c2479df0882a4922fd203edb7517321831d95078c5f6260405160405180910390a45050565b6004602052816000526040600020602052806000526040600020600091509150505481565b60006006600083815260200190815260200160002060009054906101000a900460ff16610f73576040517f08c379a0000000000000000000000000000000000000000000000000000000008152600401610f6a90614040565b60405180910390fd5b6000600560008481526020019081526020016000206040518060e0016040529081600082015481526020016001820160009054906101000a900473ffffffffffffffffffffffffffffffffffffffff1673ffffffffffffffffffffffffffffffffffffffff1673ffffffffffffffffffffffffffffffffffffffff1681526020016002820160009054906101000a900473ffffffffffffffffffffffffffffffffffffffff1673ffffffffffffffffffffffffffffffffffffffff1673ffffffffffffffffffffffffffffffffffffffff168152602001600382015481526020016004820160009054906101000a900473ffffffffffffffffffffffffffffffffffffffff1673ffffffffffffffffffffffffffffffffffffffff1673ffffffffffffffffffffffffffffffffffffffff1681526020016005820154815260200160068201548152505090503373ffffffffffffffffffffffffffffffffffffffff16816020015173ffffffffffffffffffffffffffffffffffffffff1614611131576040517f08c379a0000000000000000000000000000000000000000000000000000000008152600401611128906140ac565b60405180910390fd5b6007600084815260200190815260200160002060009054906101000a900460ff1615611192576040517f08c379a000000000000000000000000000000000000000000000000000000000815260040161118990614118565b60405180910390fd5b60016007600085815260200190815260200160002060006101000a81548160ff021916908315150217905550806060015160046000836040015173ffffffffffffffffffffffffffffffffffffffff1673ffffffffffffffffffffffffffffffffffffffff1681526020019081526020016000206000836020015173ffffffffffffffffffffffffffffffffffffffff1673ffffffffffffffffffffffffffffffffffffffff16815260200190815260200160002060008282546112569190613f9a565b92505081905550806020015173ffffffffffffffffffffffffffffffffffffffff16837f1be9b55f28fa98bdd5682efa868b883bbd42cfa330591453a160ad5fca9e8f608360400151846060015185608001518660a001518760c001516040516112c4959493929190614138565b60405180910390a36001915050919050565b60606000600c8054905090508083106114b557600c805480602002602001604051908101604052809291908181526020016000905b828210156114a957838290600052602060002090600602016040518060c00160405290816000820160009054906101000a900473ffffffffffffffffffffffffffffffffffffffff1673ffffffffffffffffffffffffffffffffffffffff1673ffffffffffffffffffffffffffffffffffffffff1681526020016001820160009054906101000a900473ffffffffffffffffffffffffffffffffffffffff1673ffffffffffffffffffffffffffffffffffffffff1673ffffffffffffffffffffffffffffffffffffffff1681526020016002820160009054906101000a900473ffffffffffffffffffffffffffffffffffffffff1673ffffffffffffffffffffffffffffffffffffffff1673ffffffffffffffffffffffffffffffffffffffff168152602001600382015481526020016004820160009054906101000a900473ffffffffffffffffffffffffffffffffffffffff1673ffffffffffffffffffffffffffffffffffffffff1673ffffffffffffffffffffffffffffffffffffffff1681526020016005820154815250508152602001906001019061130b565b50505050915050611705565b60008367ffffffffffffffff8111156114d1576114d0613d72565b5b60405190808252806020026020018201604052801561150a57816020015b6114f761347f565b8152602001906001900390816114ef5790505b5090506000848361151b9190613e6a565b905060005b858110156116fd57600c81836115369190613f9a565b8154811061154757611546613ccc565b5b90600052602060002090600602016040518060c00160405290816000820160009054906101000a900473ffffffffffffffffffffffffffffffffffffffff1673ffffffffffffffffffffffffffffffffffffffff1673ffffffffffffffffffffffffffffffffffffffff1681526020016001820160009054906101000a900473ffffffffffffffffffffffffffffffffffffffff1673ffffffffffffffffffffffffffffffffffffffff1673ffffffffffffffffffffffffffffffffffffffff1681526020016002820160009054906101000a900473ffffffffffffffffffffffffffffffffffffffff1673ffffffffffffffffffffffffffffffffffffffff1673ffffffffffffffffffffffffffffffffffffffff168152602001600382015481526020016004820160009054906101000a900473ffffffffffffffffffffffffffffffffffffffff1673ffffffffffffffffffffffffffffffffffffffff1673ffffffffffffffffffffffffffffffffffffffff1681526020016005820154815250508382815181106116df576116de613ccc565b5b602002602001018190525080806116f590613d2a565b915050611520565b508193505050505b919050565b6060600c805480602002602001604051908101604052809291908181526020016000905b828210156118cc57838290600052602060002090600602016040518060c00160405290816000820160009054906101000a900473ffffffffffffffffffffffffffffffffffffffff1673ffffffffffffffffffffffffffffffffffffffff1673ffffffffffffffffffffffffffffffffffffffff1681526020016001820160009054906101000a900473ffffffffffffffffffffffffffffffffffffffff1673ffffffffffffffffffffffffffffffffffffffff1673ffffffffffffffffffffffffffffffffffffffff1681526020016002820160009054906101000a900473ffffffffffffffffffffffffffffffffffffffff1673ffffffffffffffffffffffffffffffffffffffff1673ffffffffffffffffffffffffffffffffffffffff168152602001600382015481526020016004820160009054906101000a900473ffffffffffffffffffffffffffffffffffffffff1673ffffffffffffffffffffffffffffffffffffffff1673ffffffffffffffffffffffffffffffffffffffff1681526020016005820154815250508152602001906001019061172e565b50505050905090565b600a60205281600052604060002081815481106118f157600080fd5b90600052602060002001600091509150505481565b600080851161194a576040517f08c379a0000000000000000000000000000000000000000000000000000000008152600401611941906141fd565b60405180910390fd5b6000831161198d576040517f08c379a00000000000000000000000000000000000000000000000000000000081526004016119849061428f565b60405180910390fd5b84600460008873ffffffffffffffffffffffffffffffffffffffff1673ffffffffffffffffffffffffffffffffffffffff16815260200190815260200160002060003373ffffffffffffffffffffffffffffffffffffffff1673ffffffffffffffffffffffffffffffffffffffff168152602001908152602001600020541015611a4c576040517f08c379a0000000000000000000000000000000000000000000000000000000008152600401611a4390614321565b60405180910390fd5b6001548511611a90576040517f08c379a0000000000000000000000000000000000000000000000000000000008152600401611a87906143b3565b60405180910390fd5b6002548311611ad4576040517f08c379a0000000000000000000000000000000000000000000000000000000008152600401611acb90614445565b60405180910390fd5b600080611ae38888888861226c565b915091508115611afd57611af78133612513565b50611b0d565b611b0b338989898989612c7e565b505b60019250505095945050505050565b60008054906101000a900473ffffffffffffffffffffffffffffffffffffffff1681565b60076020528060005260406000206000915054906101000a900460ff1681565b60056020528060005260406000206000915090508060000154908060010160009054906101000a900473ffffffffffffffffffffffffffffffffffffffff16908060020160009054906101000a900473ffffffffffffffffffffffffffffffffffffffff16908060030154908060040160009054906101000a900473ffffffffffffffffffffffffffffffffffffffff16908060050154908060060154905087565b600360009054906101000a900473ffffffffffffffffffffffffffffffffffffffff1673ffffffffffffffffffffffffffffffffffffffff168273ffffffffffffffffffffffffffffffffffffffff1603611c92576040517f08c379a0000000000000000000000000000000000000000000000000000000008152600401611c8990613eea565b60405180910390fd5b80600460008473ffffffffffffffffffffffffffffffffffffffff1673ffffffffffffffffffffffffffffffffffffffff16815260200190815260200160002060003373ffffffffffffffffffffffffffffffffffffffff1673ffffffffffffffffffffffffffffffffffffffff168152602001908152602001600020541015611d51576040517f08c379a0000000000000000000000000000000000000000000000000000000008152600401611d4890613e4a565b60405180910390fd5b80600460008473ffffffffffffffffffffffffffffffffffffffff1673ffffffffffffffffffffffffffffffffffffffff16815260200190815260200160002060003373ffffffffffffffffffffffffffffffffffffffff1673ffffffffffffffffffffffffffffffffffffffff1681526020019081526020016000206000828254611ddd9190613e6a565b925050819055508173ffffffffffffffffffffffffffffffffffffffff1663a9059cbb33836040518363ffffffff1660e01b8152600401611e1f929190614465565b6020604051808303816000875af1158015611e3e573d6000803e3d6000fd5b505050506040513d601f19601f82011682018060405250810190611e629190613f6d565b611e6b57600080fd5b808273ffffffffffffffffffffffffffffffffffffffff163373ffffffffffffffffffffffffffffffffffffffff167f9b1bfa7fa9ee420a16e124f794c35ac9f90472acc99140eb2f6447c714cad8eb60405160405180910390a45050565b3460046000600360009054906101000a900473ffffffffffffffffffffffffffffffffffffffff1673ffffffffffffffffffffffffffffffffffffffff1673ffffffffffffffffffffffffffffffffffffffff16815260200190815260200160002060003373ffffffffffffffffffffffffffffffffffffffff1673ffffffffffffffffffffffffffffffffffffffff1681526020019081526020016000206000828254611f789190613f9a565b9250508190555034600360009054906101000a900473ffffffffffffffffffffffffffffffffffffffff1673ffffffffffffffffffffffffffffffffffffffff163373ffffffffffffffffffffffffffffffffffffffff167f5548c837ab068cf56a2c2479df0882a4922fd203edb7517321831d95078c5f6260405160405180910390a4565b60008060008060006006600087815260200190815260200160002060009054906101000a900460ff16612066576040517f08c379a000000000000000000000000000000000000000000000000000000000815260040161205d90614040565b60405180910390fd5b6000600560008881526020019081526020016000206040518060e0016040529081600082015481526020016001820160009054906101000a900473ffffffffffffffffffffffffffffffffffffffff1673ffffffffffffffffffffffffffffffffffffffff1673ffffffffffffffffffffffffffffffffffffffff1681526020016002820160009054906101000a900473ffffffffffffffffffffffffffffffffffffffff1673ffffffffffffffffffffffffffffffffffffffff1673ffffffffffffffffffffffffffffffffffffffff168152602001600382015481526020016004820160009054906101000a900473ffffffffffffffffffffffffffffffffffffffff1673ffffffffffffffffffffffffffffffffffffffff1673ffffffffffffffffffffffffffffffffffffffff16815260200160058201548152602001600682015481525050905080602001518160400151826060015183608001518460a00151955095509550955095505091939590929450565b6000600460008473ffffffffffffffffffffffffffffffffffffffff1673ffffffffffffffffffffffffffffffffffffffff16815260200190815260200160002060008373ffffffffffffffffffffffffffffffffffffffff1673ffffffffffffffffffffffffffffffffffffffff16815260200190815260200160002054905092915050565b60015481565b60008060008484888860405160200161228894939291906144f7565b6040516020818303038152906040528051906020012090506000600960008381526020019081526020016000208054806020026020016040519081016040528092919081815260200182805480156122ff57602002820191906000526020600020905b8154815260200190600101908083116122eb575b5050505050905060005b81518110156124f95760006005600084848151811061232b5761232a613ccc565b5b602002602001015181526020019081526020016000206040518060e0016040529081600082015481526020016001820160009054906101000a900473ffffffffffffffffffffffffffffffffffffffff1673ffffffffffffffffffffffffffffffffffffffff1673ffffffffffffffffffffffffffffffffffffffff1681526020016002820160009054906101000a900473ffffffffffffffffffffffffffffffffffffffff1673ffffffffffffffffffffffffffffffffffffffff1673ffffffffffffffffffffffffffffffffffffffff168152602001600382015481526020016004820160009054906101000a900473ffffffffffffffffffffffffffffffffffffffff1673ffffffffffffffffffffffffffffffffffffffff1673ffffffffffffffffffffffffffffffffffffffff168152602001600582015481526020016006820154815250509050600760008260000151815260200190815260200160002060009054906101000a900460ff161580156124cc5750600860008260000151815260200190815260200160002060009054906101000a900460ff16155b156124e55760018160000151955095505050505061250a565b5080806124f190613d2a565b915050612309565b506000808060001b90509350935050505b94509492505050565b600080600560008581526020019081526020016000206040518060e0016040529081600082015481526020016001820160009054906101000a900473ffffffffffffffffffffffffffffffffffffffff1673ffffffffffffffffffffffffffffffffffffffff1673ffffffffffffffffffffffffffffffffffffffff1681526020016002820160009054906101000a900473ffffffffffffffffffffffffffffffffffffffff1673ffffffffffffffffffffffffffffffffffffffff1673ffffffffffffffffffffffffffffffffffffffff168152602001600382015481526020016004820160009054906101000a900473ffffffffffffffffffffffffffffffffffffffff1673ffffffffffffffffffffffffffffffffffffffff1673ffffffffffffffffffffffffffffffffffffffff1681526020016005820154815260200160068201548152505090508060a0015160046000836080015173ffffffffffffffffffffffffffffffffffffffff1673ffffffffffffffffffffffffffffffffffffffff16815260200190815260200160002060008573ffffffffffffffffffffffffffffffffffffffff1673ffffffffffffffffffffffffffffffffffffffff16815260200190815260200160002060008282546126f49190613e6a565b925050819055506001548160a0015161270d9190613e6a565b60046000836080015173ffffffffffffffffffffffffffffffffffffffff1673ffffffffffffffffffffffffffffffffffffffff1681526020019081526020016000206000836020015173ffffffffffffffffffffffffffffffffffffffff1673ffffffffffffffffffffffffffffffffffffffff16815260200190815260200160002060008282546127a09190613f9a565b9250508190555060015460046000836080015173ffffffffffffffffffffffffffffffffffffffff1673ffffffffffffffffffffffffffffffffffffffff16815260200190815260200160002060008060009054906101000a900473ffffffffffffffffffffffffffffffffffffffff1673ffffffffffffffffffffffffffffffffffffffff1673ffffffffffffffffffffffffffffffffffffffff168152602001908152602001600020600082825461285a9190613f9a565b9250508190555060025481606001516128739190613e6a565b60046000836040015173ffffffffffffffffffffffffffffffffffffffff1673ffffffffffffffffffffffffffffffffffffffff16815260200190815260200160002060008573ffffffffffffffffffffffffffffffffffffffff1673ffffffffffffffffffffffffffffffffffffffff16815260200190815260200160002060008282546129029190613f9a565b9250508190555060025460046000836040015173ffffffffffffffffffffffffffffffffffffffff1673ffffffffffffffffffffffffffffffffffffffff16815260200190815260200160002060008060009054906101000a900473ffffffffffffffffffffffffffffffffffffffff1673ffffffffffffffffffffffffffffffffffffffff1673ffffffffffffffffffffffffffffffffffffffff16815260200190815260200160002060008282546129bc9190613f9a565b925050819055506001600860008360000151815260200190815260200160002060006101000a81548160ff02191690831515021790555060006040518060c00160405280836020015173ffffffffffffffffffffffffffffffffffffffff1681526020018573ffffffffffffffffffffffffffffffffffffffff168152602001836040015173ffffffffffffffffffffffffffffffffffffffff16815260200183606001518152602001836080015173ffffffffffffffffffffffffffffffffffffffff1681526020018360a001518152509050600c81908060018154018082558091505060019003906000526020600020906006020160009091909190915060008201518160000160006101000a81548173ffffffffffffffffffffffffffffffffffffffff021916908373ffffffffffffffffffffffffffffffffffffffff16021790555060208201518160010160006101000a81548173ffffffffffffffffffffffffffffffffffffffff021916908373ffffffffffffffffffffffffffffffffffffffff16021790555060408201518160020160006101000a81548173ffffffffffffffffffffffffffffffffffffffff021916908373ffffffffffffffffffffffffffffffffffffffff1602179055506060820151816003015560808201518160040160006101000a81548173ffffffffffffffffffffffffffffffffffffffff021916908373ffffffffffffffffffffffffffffffffffffffff16021790555060a082015181600501555050806020015173ffffffffffffffffffffffffffffffffffffffff16816000015173ffffffffffffffffffffffffffffffffffffffff16867f558fa21ba3fa30155c5c27187679cc4532d06c61b9864b8abd2e9b720318aa4a8460400151856060015186608001518760a00151604051612c6a9493929190614545565b60405180910390a460019250505092915050565b6000808511612cc2576040517f08c379a0000000000000000000000000000000000000000000000000000000008152600401612cb9906141fd565b60405180910390fd5b60008311612d05576040517f08c379a0000000000000000000000000000000000000000000000000000000008152600401612cfc9061428f565b60405180910390fd5b84600460008873ffffffffffffffffffffffffffffffffffffffff1673ffffffffffffffffffffffffffffffffffffffff16815260200190815260200160002060008973ffffffffffffffffffffffffffffffffffffffff1673ffffffffffffffffffffffffffffffffffffffff168152602001908152602001600020541015612dc4576040517f08c379a0000000000000000000000000000000000000000000000000000000008152600401612dbb90614321565b60405180910390fd5b6001548511612e08576040517f08c379a0000000000000000000000000000000000000000000000000000000008152600401612dff906143b3565b60405180910390fd5b6002548311612e4c576040517f08c379a0000000000000000000000000000000000000000000000000000000008152600401612e4390614445565b60405180910390fd5b6000878787878787604051602001612e699695949392919061458a565b6040516020818303038152906040528051906020012090506006600082815260200190815260200160002060009054906101000a900460ff1615612ee2576040517f08c379a0000000000000000000000000000000000000000000000000000000008152600401612ed990614646565b60405180910390fd5b85600460008973ffffffffffffffffffffffffffffffffffffffff1673ffffffffffffffffffffffffffffffffffffffff16815260200190815260200160002060008a73ffffffffffffffffffffffffffffffffffffffff1673ffffffffffffffffffffffffffffffffffffffff1681526020019081526020016000206000828254612f6e9190613e6a565b925050819055506040518060e001604052808281526020018973ffffffffffffffffffffffffffffffffffffffff1681526020018873ffffffffffffffffffffffffffffffffffffffff1681526020018781526020018673ffffffffffffffffffffffffffffffffffffffff16815260200185815260200184815250600560008381526020019081526020016000206000820151816000015560208201518160010160006101000a81548173ffffffffffffffffffffffffffffffffffffffff021916908373ffffffffffffffffffffffffffffffffffffffff16021790555060408201518160020160006101000a81548173ffffffffffffffffffffffffffffffffffffffff021916908373ffffffffffffffffffffffffffffffffffffffff1602179055506060820151816003015560808201518160040160006101000a81548173ffffffffffffffffffffffffffffffffffffffff021916908373ffffffffffffffffffffffffffffffffffffffff16021790555060a0820151816005015560c0820151816006015590505060016006600083815260200190815260200160002060006101000a81548160ff021916908315150217905550600b600560008381526020019081526020016000209080600181540180825580915050600190039060005260206000209060070201600090919091909150600082015481600001556001820160009054906101000a900473ffffffffffffffffffffffffffffffffffffffff168160010160006101000a81548173ffffffffffffffffffffffffffffffffffffffff021916908373ffffffffffffffffffffffffffffffffffffffff1602179055506002820160009054906101000a900473ffffffffffffffffffffffffffffffffffffffff168160020160006101000a81548173ffffffffffffffffffffffffffffffffffffffff021916908373ffffffffffffffffffffffffffffffffffffffff160217905550600382015481600301556004820160009054906101000a900473ffffffffffffffffffffffffffffffffffffffff168160040160006101000a81548173ffffffffffffffffffffffffffffffffffffffff021916908373ffffffffffffffffffffffffffffffffffffffff16021790555060058201548160050155600682015481600601555050600a60008973ffffffffffffffffffffffffffffffffffffffff1673ffffffffffffffffffffffffffffffffffffffff16815260200190815260200160002081908060018154018082558091505060019003906000526020600020016000909190919091505560008787878760405160200161334594939291906144f7565b604051602081830303815290604052805190602001209050600960008281526020019081526020016000208290806001815401808255809150506001900390600052602060002001600090919091909150558873ffffffffffffffffffffffffffffffffffffffff16827f75d1348a62e26f5cdaf5ce2830ded202f8e1fed2ee018a930cd57c71469695318a8a8a8a8a6040516133e6959493929190614138565b60405180910390a381925050509695505050505050565b6040518060e0016040528060008019168152602001600073ffffffffffffffffffffffffffffffffffffffff168152602001600073ffffffffffffffffffffffffffffffffffffffff16815260200160008152602001600073ffffffffffffffffffffffffffffffffffffffff16815260200160008152602001600081525090565b6040518060c00160405280600073ffffffffffffffffffffffffffffffffffffffff168152602001600073ffffffffffffffffffffffffffffffffffffffff168152602001600073ffffffffffffffffffffffffffffffffffffffff16815260200160008152602001600073ffffffffffffffffffffffffffffffffffffffff168152602001600081525090565b600081519050919050565b600082825260208201905092915050565b6000819050602082019050919050565b6000819050919050565b61354c81613539565b82525050565b600073ffffffffffffffffffffffffffffffffffffffff82169050919050565b600061357d82613552565b9050919050565b61358d81613572565b82525050565b6000819050919050565b6135a681613593565b82525050565b60e0820160008201516135c26000850182613543565b5060208201516135d56020850182613584565b5060408201516135e86040850182613584565b5060608201516135fb606085018261359d565b50608082015161360e6080850182613584565b5060a082015161362160a085018261359d565b5060c082015161363460c085018261359d565b50505050565b600061364683836135ac565b60e08301905092915050565b6000602082019050919050565b600061366a8261350d565b6136748185613518565b935061367f83613529565b8060005b838110156136b0578151613697888261363a565b97506136a283613652565b925050600181019050613683565b5085935050505092915050565b600060208201905081810360008301526136d7818461365f565b905092915050565b6136e881613593565b82525050565b600060208201905061370360008301846136df565b92915050565b600080fd5b61371781613539565b811461372257600080fd5b50565b6000813590506137348161370e565b92915050565b6000602082840312156137505761374f613709565b5b600061375e84828501613725565b91505092915050565b60008115159050919050565b61377c81613767565b82525050565b60006020820190506137976000830184613773565b92915050565b6137a681613572565b82525050565b60006020820190506137c1600083018461379d565b92915050565b6137d081613593565b81146137db57600080fd5b50565b6000813590506137ed816137c7565b92915050565b6000806040838503121561380a57613809613709565b5b600061381885828601613725565b9250506020613829858286016137de565b9150509250929050565b61383c81613539565b82525050565b60006020820190506138576000830184613833565b92915050565b600081519050919050565b600082825260208201905092915050565b6000819050602082019050919050565b60006138958383613543565b60208301905092915050565b6000602082019050919050565b60006138b98261385d565b6138c38185613868565b93506138ce83613879565b8060005b838110156138ff5781516138e68882613889565b97506138f1836138a1565b9250506001810190506138d2565b5085935050505092915050565b6000602082019050818103600083015261392681846138ae565b905092915050565b60006020828403121561394457613943613709565b5b6000613952848285016137de565b91505092915050565b61396481613572565b811461396f57600080fd5b50565b6000813590506139818161395b565b92915050565b6000806040838503121561399e5761399d613709565b5b60006139ac85828601613972565b92505060206139bd858286016137de565b9150509250929050565b600080604083850312156139de576139dd613709565b5b60006139ec85828601613972565b92505060206139fd85828601613972565b9150509250929050565b600081519050919050565b600082825260208201905092915050565b6000819050602082019050919050565b60c082016000820151613a496000850182613584565b506020820151613a5c6020850182613584565b506040820151613a6f6040850182613584565b506060820151613a82606085018261359d565b506080820151613a956080850182613584565b5060a0820151613aa860a085018261359d565b50505050565b6000613aba8383613a33565b60c08301905092915050565b6000602082019050919050565b6000613ade82613a07565b613ae88185613a12565b9350613af383613a23565b8060005b83811015613b24578151613b0b8882613aae565b9750613b1683613ac6565b925050600181019050613af7565b5085935050505092915050565b60006020820190508181036000830152613b4b8184613ad3565b905092915050565b600080600080600060a08688031215613b6f57613b6e613709565b5b6000613b7d88828901613972565b9550506020613b8e888289016137de565b9450506040613b9f88828901613972565b9350506060613bb0888289016137de565b9250506080613bc1888289016137de565b9150509295509295909350565b6000613bd982613552565b9050919050565b613be981613bce565b82525050565b6000602082019050613c046000830184613be0565b92915050565b600060e082019050613c1f600083018a613833565b613c2c602083018961379d565b613c39604083018861379d565b613c4660608301876136df565b613c53608083018661379d565b613c6060a08301856136df565b613c6d60c08301846136df565b98975050505050505050565b600060a082019050613c8e600083018861379d565b613c9b602083018761379d565b613ca860408301866136df565b613cb5606083018561379d565b613cc260808301846136df565b9695505050505050565b7f4e487b7100000000000000000000000000000000000000000000000000000000600052603260045260246000fd5b7f4e487b7100000000000000000000000000000000000000000000000000000000600052601160045260246000fd5b6000613d3582613593565b91507fffffffffffffffffffffffffffffffffffffffffffffffffffffffffffffffff8203613d6757613d66613cfb565b5b600182019050919050565b7f4e487b7100000000000000000000000000000000000000000000000000000000600052604160045260246000fd5b600082825260208201905092915050565b7f5468652073656e646572206f6620746865206d65737361676520646f6573206e60008201527f6f74206861766520656e6f75676820636f696e73206f6e206869732062616c6160208201527f6e63650000000000000000000000000000000000000000000000000000000000604082015250565b6000613e34604383613da1565b9150613e3f82613db2565b606082019050919050565b60006020820190508181036000830152613e6381613e27565b9050919050565b6000613e7582613593565b9150613e8083613593565b9250828203905081811115613e9857613e97613cfb565b5b92915050565b7f546f6b656e2061646472657373206d757374206265206e6f7420300000000000600082015250565b6000613ed4601b83613da1565b9150613edf82613e9e565b602082019050919050565b60006020820190508181036000830152613f0381613ec7565b9050919050565b6000606082019050613f1f600083018661379d565b613f2c602083018561379d565b613f3960408301846136df565b949350505050565b613f4a81613767565b8114613f5557600080fd5b50565b600081519050613f6781613f41565b92915050565b600060208284031215613f8357613f82613709565b5b6000613f9184828501613f58565b91505092915050565b6000613fa582613593565b9150613fb083613593565b9250828201905080821115613fc857613fc7613cfb565b5b92915050565b7f4f7264657220776974682073756368206861736820646f6573206e6f7420657860008201527f697374732e000000000000000000000000000000000000000000000000000000602082015250565b600061402a602583613da1565b915061403582613fce565b604082019050919050565b600060208201905081810360008301526140598161401d565b9050919050565b7f596f7520617265206e6f74206f726465722063726561746f722e000000000000600082015250565b6000614096601a83613da1565b91506140a182614060565b602082019050919050565b600060208201905081810360008301526140c581614089565b9050919050565b7f4f7264657220616c72656164792063616e63656c6c65642e0000000000000000600082015250565b6000614102601883613da1565b915061410d826140cc565b602082019050919050565b60006020820190508181036000830152614131816140f5565b9050919050565b600060a08201905061414d600083018861379d565b61415a60208301876136df565b614167604083018661379d565b61417460608301856136df565b61418160808301846136df565b9695505050505050565b7f416d6f756e7420746f2067697665206d7573742062652067726561746572207460008201527f68616e20302e0000000000000000000000000000000000000000000000000000602082015250565b60006141e7602683613da1565b91506141f28261418b565b604082019050919050565b60006020820190508181036000830152614216816141da565b9050919050565b7f416d6f756e7420746f2072656365697665206d7573742062652067726561746560008201527f72207468616e20302e0000000000000000000000000000000000000000000000602082015250565b6000614279602983613da1565b91506142848261421d565b604082019050919050565b600060208201905081810360008301526142a88161426c565b9050919050565b7f496e73756666696369656e7420746f6b656e2062616c616e636520746f20637260008201527f6561746520746865206f726465722e0000000000000000000000000000000000602082015250565b600061430b602f83613da1565b9150614316826142af565b604082019050919050565b6000602082019050818103600083015261433a816142fe565b9050919050565b7f416d6f756e7420746f2067697665206d7573742062652067726561746572207460008201527f68616e2066656500000000000000000000000000000000000000000000000000602082015250565b600061439d602783613da1565b91506143a882614341565b604082019050919050565b600060208201905081810360008301526143cc81614390565b9050919050565b7f416d6f756e7420746f2072656365697665206d7573742062652067726561746560008201527f72207468616e2066656500000000000000000000000000000000000000000000602082015250565b600061442f602a83613da1565b915061443a826143d3565b604082019050919050565b6000602082019050818103600083015261445e81614422565b9050919050565b600060408201905061447a600083018561379d565b61448760208301846136df565b9392505050565b60008160601b9050919050565b60006144a68261448e565b9050919050565b60006144b88261449b565b9050919050565b6144d06144cb82613572565b6144ad565b82525050565b6000819050919050565b6144f16144ec82613593565b6144d6565b82525050565b600061450382876144bf565b60148201915061451382866144e0565b60208201915061452382856144bf565b60148201915061453382846144e0565b60208201915081905095945050505050565b600060808201905061455a600083018761379d565b61456760208301866136df565b614574604083018561379d565b61458160608301846136df565b95945050505050565b600061459682896144bf565b6014820191506145a682886144bf565b6014820191506145b682876144e0565b6020820191506145c682866144bf565b6014820191506145d682856144e0565b6020820191506145e682846144e0565b602082019150819050979650505050505050565b7f4f7264657220616c7265616479206578697374732e0000000000000000000000600082015250565b6000614630601583613da1565b915061463b826145fa565b602082019050919050565b6000602082019050818103600083015261465f81614623565b905091905056fea2646970667358221220e4999fbe209bab2f6cc469990c8bf140d73c9644201b0f521cf5c187f3ee648164736f6c63430008120033",
  "immutableReferences": {},
  "source": "// SPDX-License-Identifier: MIT\r\npragma solidity 0.8.18;\r\n\r\nimport \"./IERC20.sol\";\r\n\r\ncontract Exchange {\r\n    address payable public owner;\r\n    uint256 public feeFrom;\r\n    uint256 public feeTo;\r\n\r\n    address public EthTokenAddress = address(0xEeeeeEeeeEeEeeEeEeEeeEEEeeeeEeeeeeeeEEeE);\r\n\r\n    struct Order {\r\n        bytes32 hash;\r\n        address user;\r\n        address tokenToGive;\r\n        uint256 amountToGive;\r\n        address tokenToReceive;\r\n        uint256 amountToReceive;\r\n        uint256 timespan;\r\n    }\r\n\r\n    struct Transaction {\r\n        address FromUser;\r\n        address ToUser;\r\n        address tokenFrom;\r\n        uint256 amountFrom;\r\n        address tokenTo;\r\n        uint256 amountTo;\r\n    }\r\n    \r\n    // mapping of token addresses to mapping of account balances\r\n    mapping (address => mapping (address => uint256)) public tokens;\r\n\r\n    mapping (bytes32 => Order) public orders;\r\n    mapping (bytes32 => bool) public orderExists;\r\n    mapping (bytes32 => bool) public cancelledOrders;\r\n    mapping (bytes32 => bool) public completedOrders;\r\n\r\n    // mapping of orders with specific trades\r\n    mapping (bytes32 => bytes32[]) public ordersWithSpecialConditions;\r\n\r\n    // mapping of orders for specific user\r\n    mapping(address => bytes32[]) public userOrders;\r\n\r\n    Order[] ordersHistory;\r\n\r\n    Transaction[] transactions;\r\n\r\n    event Deposit(address indexed user, address indexed token, uint256 indexed amount);\r\n    event Withdraw(address indexed user, address indexed token, uint256 indexed amount);\r\n    event CreateOrder(\r\n        bytes32 indexed orderHash, \r\n        address indexed user, \r\n        address tokenToGive, \r\n        uint256 amountToGive, \r\n        address tokenToReceive, \r\n        uint256 amountToReceive, \r\n        uint256 timespan\r\n    );\r\n    event CancelOrder(\r\n        bytes32 indexed orderHash, \r\n        address indexed user, \r\n        address tokenToGive, \r\n        uint256 amountToGive, \r\n        address tokenToReceive, \r\n        uint256 amountToReceive, \r\n        uint256 timespan\r\n    );\r\n\r\n    event Trade(\r\n        bytes32 indexed orderHash,\r\n        address indexed fromUser, \r\n        address indexed toUser, \r\n        address tokenFrom, \r\n        uint256 amountFrom, \r\n        address tokenTo, \r\n        uint256 amountTo\r\n    );\r\n\r\n    constructor() {\r\n        owner = payable(msg.sender);\r\n        feeFrom = 100;\r\n        feeTo = 100;\r\n    }\r\n\r\n    modifier onlyOwner() {\r\n        require(msg.sender == owner, \"Only the owner can call this function.\");\r\n        _;\r\n    }\r\n\r\n    //\r\n    // Accounting\r\n    //\r\n\r\n    function deposit() public payable {\r\n        tokens[EthTokenAddress][msg.sender] += msg.value;\r\n\r\n        emit Deposit(msg.sender, EthTokenAddress, msg.value);\r\n    }\r\n\r\n    function depositToken(address _token, uint256 _amount) public {\r\n        require(_token != EthTokenAddress, \"Token address must be not 0\");\r\n\r\n        if (!IERC20(_token).transferFrom(msg.sender, address(this), _amount)) revert();\r\n        tokens[_token][msg.sender] += _amount;\r\n\r\n        emit Deposit(msg.sender, _token, _amount);\r\n    }\r\n\r\n    function withdraw(uint256 _amount) public {\r\n        require(tokens[EthTokenAddress][msg.sender] >= _amount, \"The sender of the message does not have enough coins on his balance\");\r\n\r\n        tokens[EthTokenAddress][msg.sender] -= _amount;\r\n        payable(msg.sender).transfer(_amount);\r\n\r\n        emit Withdraw(msg.sender, EthTokenAddress, _amount);\r\n    }\r\n\r\n    function withdrawToken(address _token, uint256 _amount) public {\r\n        require(_token != EthTokenAddress, \"Token address must be not 0\");\r\n        require(tokens[_token][msg.sender] >= _amount, \"The sender of the message does not have enough coins on his balance\");\r\n\r\n        tokens[_token][msg.sender] -= _amount;\r\n        if (!IERC20(_token).transfer(msg.sender, _amount)) revert();\r\n\r\n        emit Withdraw(msg.sender, _token, _amount);\r\n    }\r\n\r\n    function balanceOf(address _token, address _user) public view returns (uint256) {\r\n        return tokens[_token][_user];\r\n    }\r\n\r\n    //\r\n    // Exchange\r\n    //\r\n\r\n    function trade( \r\n        address _tokenToGive, \r\n        uint256 _amountToGive,\r\n        address _tokenToReceive, \r\n        uint256 _amountToReceive, \r\n        uint256 _timespan\r\n    ) public returns (bool) {\r\n        require(_amountToGive > 0, \"Amount to give must be greater than 0.\");\r\n        require(_amountToReceive > 0, \"Amount to receive must be greater than 0.\");\r\n        require(tokens[_tokenToGive][msg.sender] >= _amountToGive, \"Insufficient token balance to create the order.\");\r\n        // Check fee\r\n        require(_amountToGive > feeFrom, \"Amount to give must be greater than fee\");\r\n        require(_amountToReceive > feeTo, \"Amount to receive must be greater than fee\");\r\n        // Check if there are perfect order\r\n        (bool rightOrderExists, bytes32 orderHash) = findMatchingOrder(_tokenToGive, _amountToGive, _tokenToReceive, _amountToReceive);\r\n        \r\n        if (rightOrderExists)\r\n        {\r\n            executeTrade(orderHash, msg.sender);\r\n        }\r\n        else \r\n        {\r\n            createOrder(msg.sender, _tokenToGive, _amountToGive, _tokenToReceive, _amountToReceive, _timespan);\r\n        }\r\n\r\n\r\n        return true;\r\n    }\r\n\r\n    function findMatchingOrder(\r\n        address _tokenToGive, \r\n        uint256 _amountToGive, \r\n        address _tokenToReceive, \r\n        uint256 _amountToReceive\r\n    ) internal view returns(bool, bytes32) {\r\n        bytes32 ordersHashBySpecialConditions = keccak256(abi.encodePacked(_tokenToReceive, _amountToReceive, _tokenToGive, _amountToGive));\r\n\r\n        bytes32[] memory ordersBySpecialConditions = ordersWithSpecialConditions[ordersHashBySpecialConditions];\r\n\r\n        for (uint256 i = 0; i < ordersBySpecialConditions.length; i++) \r\n        {\r\n            Order memory order = orders[ordersBySpecialConditions[i]];\r\n            if (!cancelledOrders[order.hash] && !completedOrders[order.hash])\r\n            {\r\n                return (true, order.hash);\r\n            }\r\n        }\r\n\r\n        return (false, 0);\r\n    }\r\n\r\n    function executeTrade(bytes32 _orderHash, address userToTrade) internal returns(bool){\r\n        //\r\n        // Trade balances between users\r\n        //\r\n        Order memory order = orders[_orderHash];\r\n\r\n        // Swap\r\n        tokens[order.tokenToReceive][userToTrade] -= order.amountToReceive;\r\n\r\n        tokens[order.tokenToReceive][order.user] += order.amountToReceive - feeFrom;\r\n        tokens[order.tokenToReceive][owner] += feeFrom; // Fee from trade\r\n\r\n        tokens[order.tokenToGive][userToTrade] += order.amountToGive - feeTo;\r\n        \r\n        tokens[order.tokenToGive][owner] += feeTo; // Fee from trade\r\n\r\n        // Complete order\r\n        completedOrders[order.hash] = true;\r\n\r\n        //\r\n        // Create transactrions\r\n        //\r\n\r\n        Transaction memory transaction = Transaction(\r\n            order.user, \r\n            userToTrade, \r\n            order.tokenToGive, \r\n            order.amountToGive, \r\n            order.tokenToReceive, \r\n            order.amountToReceive\r\n        );\r\n\r\n        transactions.push(transaction);\r\n\r\n        emit Trade(\r\n            _orderHash,\r\n            transaction.FromUser, \r\n            transaction.ToUser, \r\n            transaction.tokenFrom,\r\n            transaction.amountFrom, \r\n            transaction.tokenTo, \r\n            transaction.amountTo\r\n        );\r\n\r\n        return true;\r\n    }\r\n\r\n\r\n    function createOrder(\r\n        address user,\r\n        address _tokenToGive, \r\n        uint256 _amountToGive,\r\n        address _tokenToReceive, \r\n        uint256 _amountToReceive, \r\n        uint256 _timespan\r\n    ) internal  returns (bytes32) {\r\n        require(_amountToGive > 0, \"Amount to give must be greater than 0.\");\r\n        require(_amountToReceive > 0, \"Amount to receive must be greater than 0.\");\r\n        require(tokens[_tokenToGive][user] >= _amountToGive, \"Insufficient token balance to create the order.\");\r\n        // Check fee\r\n        require(_amountToGive > feeFrom, \"Amount to give must be greater than fee\");\r\n        require(_amountToReceive > feeTo, \"Amount to receive must be greater than fee\");\r\n\r\n        // Order hash\r\n        bytes32 orderHash = keccak256(abi.encodePacked(\r\n            user, \r\n            _tokenToGive, \r\n            _amountToGive, \r\n            _tokenToReceive, \r\n            _amountToReceive, \r\n            _timespan));\r\n\r\n        \r\n        require(!orderExists[orderHash], \"Order already exists.\");\r\n\r\n        // Decrease user balance\r\n        tokens[_tokenToGive][user] -= _amountToGive;\r\n\r\n        // Write new order\r\n        orders[orderHash] = Order(orderHash, user, _tokenToGive, _amountToGive, _tokenToReceive, _amountToReceive, _timespan);\r\n        orderExists[orderHash] = true;\r\n\r\n        ordersHistory.push(orders[orderHash]);\r\n\r\n        // Add order into user orders\r\n        userOrders[user].push(orderHash);\r\n        \r\n\r\n        // Order hash by special conditions\r\n        bytes32 orderHashBySpecialConditions = keccak256(abi.encodePacked(_tokenToGive, _amountToGive, _tokenToReceive, _amountToReceive));\r\n        // Write contracts with special orders\r\n        ordersWithSpecialConditions[orderHashBySpecialConditions].push(orderHash);\r\n\r\n        emit CreateOrder(orderHash, user, _tokenToGive, _amountToGive, _tokenToReceive, _amountToReceive, _timespan);\r\n\r\n        return orderHash;\r\n    }\r\n\r\n\r\n    function getOrderByHash(bytes32 orderHash) public view returns(address, address, uint256, address, uint256){\r\n        require(orderExists[orderHash], \"Order with such hash does not exists.\");\r\n\r\n        Order memory order = orders[orderHash];\r\n        return (order.user, order.tokenToGive, order.amountToGive, order.tokenToReceive, order.amountToReceive);\r\n    }\r\n\r\n\r\n    function getUserOrders() public view returns (bytes32[] memory) {\r\n        return userOrders[msg.sender];\r\n    }\r\n\r\n\r\n    function cancelOrder(bytes32 orderHash) public returns(bool) {\r\n        require(orderExists[orderHash], \"Order with such hash does not exists.\");\r\n\r\n        Order memory order = orders[orderHash];\r\n\r\n        require(order.user == msg.sender, \"You are not order creator.\");\r\n        require(!cancelledOrders[orderHash], \"Order already cancelled.\");\r\n\r\n        cancelledOrders[orderHash] = true;\r\n        tokens[order.tokenToGive][order.user] += order.amountToGive;\r\n\r\n        emit CancelOrder(\r\n            orderHash, \r\n            order.user, \r\n            order.tokenToGive, \r\n            order.amountToGive, \r\n            order.tokenToReceive, \r\n            order.amountToReceive, \r\n            order.timespan\r\n        );\r\n\r\n        return true;\r\n    }\r\n\r\n    function getActiveOrders() public view returns(Order[] memory) {\r\n        uint256 activeOrdersCount = 0;\r\n\r\n        for (uint256 i = 0; i < ordersHistory.length; i++) {\r\n            if (!cancelledOrders[ordersHistory[i].hash] && !completedOrders[ordersHistory[i].hash]) {\r\n                activeOrdersCount++;\r\n            }\r\n        }\r\n\r\n        Order[] memory activeOrders = new Order[](activeOrdersCount);\r\n\r\n        uint256 index = 0;\r\n        for (uint256 i = 0; i < ordersHistory.length; i++) {\r\n            if (!cancelledOrders[ordersHistory[i].hash] && !completedOrders[ordersHistory[i].hash]) {\r\n                activeOrders[index] = ordersHistory[i];\r\n                index++;\r\n            }\r\n        }\r\n\r\n        return activeOrders;\r\n    }\r\n\r\n\r\n    // Get all transactions\r\n    function getTransactions() public view returns(Transaction[] memory) {\r\n        return transactions;\r\n    }\r\n\r\n    function getRecentTransactions(uint256 n) public view returns (Transaction[] memory) {\r\n        uint256 totalTransactions = transactions.length;\r\n\r\n        if (n >= totalTransactions) {\r\n            return transactions; \r\n        }\r\n\r\n        Transaction[] memory recentTransactions = new Transaction[](n);\r\n        uint256 startIndex = totalTransactions - n;\r\n\r\n        for (uint256 i = 0; i < n; i++) {\r\n            recentTransactions[i] = transactions[startIndex + i];\r\n        }\r\n\r\n        return recentTransactions;\r\n    }\r\n}",
  "sourcePath": "C:\\Games\\\\)\\7 \\\\\\ 3\\\\3 deploySmartContracts\\contracts\\Exchange.sol",
  "compiler": {
    "name": "solc",
    "version": "0.8.18+commit.87f61d96.Emscripten.clang"
  },
  "schemaVersion": "3.4.16",
  "updatedAt": "2023-11-05T12:53:02.819Z",
  "networkType": "ethereum",
  "devdoc": {
    "kind": "dev",
    "methods": {},
    "version": 1
  },
  "userdoc": {
    "kind": "user",
    "methods": {},
    "version": 1
  }
}